{
  "contractName": "CryptoAbode",
  "abi": [
    {
      "inputs": [
        {
          "internalType": "address",
          "name": "tokenAddress",
          "type": "address"
        }
      ],
      "stateMutability": "payable",
      "type": "constructor",
      "payable": true
    },
    {
      "anonymous": false,
      "inputs": [
        {
          "indexed": false,
          "internalType": "address",
          "name": "_owner",
          "type": "address"
        },
        {
          "indexed": false,
          "internalType": "uint256",
          "name": "_estateID",
          "type": "uint256"
        }
      ],
      "name": "AddEstate",
      "type": "event"
    },
    {
      "anonymous": false,
      "inputs": [
        {
          "indexed": false,
          "internalType": "address",
          "name": "_user",
          "type": "address"
        },
        {
          "indexed": false,
          "internalType": "uint256",
          "name": "_userId",
          "type": "uint256"
        }
      ],
      "name": "AddUser",
      "type": "event"
    },
    {
      "anonymous": false,
      "inputs": [
        {
          "indexed": false,
          "internalType": "address",
          "name": "_user",
          "type": "address"
        },
        {
          "indexed": false,
          "internalType": "contract RealT",
          "name": "realT",
          "type": "address"
        }
      ],
      "name": "InitUser",
      "type": "event"
    },
    {
      "anonymous": false,
      "inputs": [
        {
          "indexed": true,
          "internalType": "address",
          "name": "_seller",
          "type": "address"
        },
        {
          "indexed": true,
          "internalType": "address",
          "name": "_buyer",
          "type": "address"
        },
        {
          "indexed": false,
          "internalType": "uint256",
          "name": "_estateID",
          "type": "uint256"
        }
      ],
      "name": "TransferEstate",
      "type": "event"
    },
    {
      "inputs": [
        {
          "internalType": "uint256",
          "name": "",
          "type": "uint256"
        }
      ],
      "name": "listedEstates",
      "outputs": [
        {
          "internalType": "string",
          "name": "estateAddress",
          "type": "string"
        },
        {
          "internalType": "uint256",
          "name": "requiredPrice",
          "type": "uint256"
        },
        {
          "internalType": "string",
          "name": "imgUrl",
          "type": "string"
        },
        {
          "internalType": "string",
          "name": "features",
          "type": "string"
        },
        {
          "internalType": "bool",
          "name": "toBeSold",
          "type": "bool"
        },
        {
          "internalType": "address",
          "name": "owner",
          "type": "address"
        },
        {
          "internalType": "bool",
          "name": "isVerified",
          "type": "bool"
        },
        {
          "internalType": "uint256",
          "name": "estateType",
          "type": "uint256"
        },
        {
          "internalType": "uint256",
          "name": "months",
          "type": "uint256"
        },
        {
          "internalType": "address",
          "name": "highestBidder",
          "type": "address"
        },
        {
          "internalType": "uint256",
          "name": "highestBid",
          "type": "uint256"
        }
      ],
      "stateMutability": "view",
      "type": "function",
      "constant": true
    },
    {
      "inputs": [],
      "name": "numEstates",
      "outputs": [
        {
          "internalType": "uint256",
          "name": "",
          "type": "uint256"
        }
      ],
      "stateMutability": "view",
      "type": "function",
      "constant": true
    },
    {
      "inputs": [],
      "name": "numUsers",
      "outputs": [
        {
          "internalType": "uint256",
          "name": "",
          "type": "uint256"
        }
      ],
      "stateMutability": "view",
      "type": "function",
      "constant": true
    },
    {
      "inputs": [
        {
          "internalType": "uint256",
          "name": "",
          "type": "uint256"
        }
      ],
      "name": "userAddrs",
      "outputs": [
        {
          "internalType": "address",
          "name": "",
          "type": "address"
        }
      ],
      "stateMutability": "view",
      "type": "function",
      "constant": true
    },
    {
      "inputs": [
        {
          "internalType": "address",
          "name": "",
          "type": "address"
        }
      ],
      "name": "users",
      "outputs": [
        {
          "internalType": "uint256",
          "name": "id",
          "type": "uint256"
        },
        {
          "internalType": "uint256",
          "name": "user_type",
          "type": "uint256"
        },
        {
          "internalType": "string",
          "name": "name",
          "type": "string"
        },
        {
          "internalType": "string",
          "name": "contact",
          "type": "string"
        },
        {
          "internalType": "string",
          "name": "location",
          "type": "string"
        }
      ],
      "stateMutability": "view",
      "type": "function",
      "constant": true
    },
    {
      "inputs": [],
      "name": "fetchApprovedMarket",
      "outputs": [
        {
          "internalType": "address",
          "name": "",
          "type": "address"
        }
      ],
      "stateMutability": "view",
      "type": "function",
      "constant": true
    },
    {
      "inputs": [],
      "name": "addContractBalance",
      "outputs": [],
      "stateMutability": "payable",
      "type": "function",
      "payable": true
    },
    {
      "inputs": [
        {
          "internalType": "string",
          "name": "name",
          "type": "string"
        },
        {
          "internalType": "string",
          "name": "contact",
          "type": "string"
        },
        {
          "internalType": "string",
          "name": "location",
          "type": "string"
        }
      ],
      "name": "addUser",
      "outputs": [],
      "stateMutability": "nonpayable",
      "type": "function"
    },
    {
      "inputs": [
        {
          "internalType": "address",
          "name": "userAddr",
          "type": "address"
        },
        {
          "internalType": "uint256",
          "name": "user_type",
          "type": "uint256"
        }
      ],
      "name": "registerUser",
      "outputs": [],
      "stateMutability": "nonpayable",
      "type": "function"
    },
    {
      "inputs": [
        {
          "internalType": "uint256",
          "name": "estateIndex",
          "type": "uint256"
        }
      ],
      "name": "verifyProperty",
      "outputs": [],
      "stateMutability": "nonpayable",
      "type": "function"
    },
    {
      "inputs": [],
      "name": "getContractBalance",
      "outputs": [
        {
          "internalType": "uint256",
          "name": "",
          "type": "uint256"
        }
      ],
      "stateMutability": "view",
      "type": "function",
      "constant": true
    },
    {
      "inputs": [
        {
          "internalType": "string",
          "name": "_location",
          "type": "string"
        },
        {
          "internalType": "uint256",
          "name": "_cost",
          "type": "uint256"
        },
        {
          "internalType": "string",
          "name": "imageURL",
          "type": "string"
        },
        {
          "internalType": "string",
          "name": "feat",
          "type": "string"
        }
      ],
      "name": "addEstate",
      "outputs": [
        {
          "internalType": "bool",
          "name": "",
          "type": "bool"
        }
      ],
      "stateMutability": "nonpayable",
      "type": "function"
    },
    {
      "inputs": [
        {
          "internalType": "uint256",
          "name": "_index",
          "type": "uint256"
        }
      ],
      "name": "getEstateDetails",
      "outputs": [
        {
          "internalType": "string",
          "name": "",
          "type": "string"
        },
        {
          "internalType": "uint256",
          "name": "",
          "type": "uint256"
        },
        {
          "internalType": "string",
          "name": "",
          "type": "string"
        },
        {
          "internalType": "string",
          "name": "",
          "type": "string"
        },
        {
          "internalType": "bool",
          "name": "",
          "type": "bool"
        },
        {
          "internalType": "address",
          "name": "",
          "type": "address"
        },
        {
          "internalType": "bool",
          "name": "",
          "type": "bool"
        }
      ],
      "stateMutability": "view",
      "type": "function",
      "constant": true
    },
    {
      "inputs": [],
      "name": "getEstateCount",
      "outputs": [
        {
          "internalType": "uint256",
          "name": "",
          "type": "uint256"
        }
      ],
      "stateMutability": "view",
      "type": "function",
      "constant": true
    },
    {
      "inputs": [],
      "name": "getUserAddresses",
      "outputs": [
        {
          "internalType": "address[]",
          "name": "",
          "type": "address[]"
        }
      ],
      "stateMutability": "view",
      "type": "function",
      "constant": true
    },
    {
      "inputs": [],
      "name": "checkIfAdmin",
      "outputs": [
        {
          "internalType": "bool",
          "name": "",
          "type": "bool"
        }
      ],
      "stateMutability": "view",
      "type": "function",
      "constant": true
    },
    {
      "inputs": [],
      "name": "checkIfAuditor",
      "outputs": [
        {
          "internalType": "bool",
          "name": "",
          "type": "bool"
        }
      ],
      "stateMutability": "view",
      "type": "function",
      "constant": true
    },
    {
      "inputs": [
        {
          "internalType": "address",
          "name": "userAddr",
          "type": "address"
        }
      ],
      "name": "getUser",
      "outputs": [
        {
          "internalType": "uint256",
          "name": "",
          "type": "uint256"
        },
        {
          "internalType": "uint256",
          "name": "",
          "type": "uint256"
        },
        {
          "internalType": "string",
          "name": "",
          "type": "string"
        },
        {
          "internalType": "string",
          "name": "",
          "type": "string"
        },
        {
          "internalType": "string",
          "name": "",
          "type": "string"
        },
        {
          "internalType": "uint256[]",
          "name": "",
          "type": "uint256[]"
        }
      ],
      "stateMutability": "view",
      "type": "function",
      "constant": true
    },
    {
      "inputs": [
        {
          "internalType": "uint256",
          "name": "estateIndex",
          "type": "uint256"
        },
        {
          "internalType": "uint256",
          "name": "bidValue",
          "type": "uint256"
        }
      ],
      "name": "placeBid",
      "outputs": [],
      "stateMutability": "payable",
      "type": "function",
      "payable": true
    },
    {
      "inputs": [
        {
          "internalType": "uint256",
          "name": "estateIndex",
          "type": "uint256"
        }
      ],
      "name": "stopBidding",
      "outputs": [],
      "stateMutability": "payable",
      "type": "function",
      "payable": true
    },
    {
      "inputs": [],
      "name": "getRealTBalance",
      "outputs": [
        {
          "internalType": "uint256",
          "name": "",
          "type": "uint256"
        }
      ],
      "stateMutability": "view",
      "type": "function",
      "constant": true
    },
    {
      "inputs": [
        {
          "internalType": "address",
          "name": "to",
          "type": "address"
        },
        {
          "internalType": "uint256",
          "name": "amount",
          "type": "uint256"
        }
      ],
      "name": "transferRealTToken",
      "outputs": [],
      "stateMutability": "nonpayable",
      "type": "function"
    },
    {
      "inputs": [
        {
          "internalType": "address",
          "name": "to",
          "type": "address"
        },
        {
          "internalType": "uint256",
          "name": "amount",
          "type": "uint256"
        }
      ],
      "name": "transferRealTTokenAirDrop",
      "outputs": [],
      "stateMutability": "nonpayable",
      "type": "function"
    }
  ],
  "bytecode": "0x608060405260006004556000600555604051620038aa380380620038aa8339818101604052810190620000339190620001ca565b80600160006101000a81548173ffffffffffffffffffffffffffffffffffffffff021916908373ffffffffffffffffffffffffffffffffffffffff160217905550336000806101000a81548173ffffffffffffffffffffffffffffffffffffffff021916908373ffffffffffffffffffffffffffffffffffffffff1602179055506001600260003373ffffffffffffffffffffffffffffffffffffffff1673ffffffffffffffffffffffffffffffffffffffff168152602001908152602001600020600101819055507fee2d9b8b94348c895838ddd3878b92778b1a721c67d04b499ed1e90da69d18b233600160009054906101000a900473ffffffffffffffffffffffffffffffffffffffff166040516200015192919062000278565b60405180910390a150620002a5565b600080fd5b600073ffffffffffffffffffffffffffffffffffffffff82169050919050565b6000620001928262000165565b9050919050565b620001a48162000185565b8114620001b057600080fd5b50565b600081519050620001c48162000199565b92915050565b600060208284031215620001e357620001e262000160565b5b6000620001f384828501620001b3565b91505092915050565b620002078162000185565b82525050565b6000819050919050565b600062000238620002326200022c8462000165565b6200020d565b62000165565b9050919050565b60006200024c8262000217565b9050919050565b600062000260826200023f565b9050919050565b620002728162000253565b82525050565b60006040820190506200028f6000830185620001fc565b6200029e602083018462000267565b9392505050565b6135f580620002b56000396000f3fe6080604052600436106101405760003560e01c806377552d8a116100b6578063ba9a837c1161006f578063ba9a837c1461044e578063bb0d3a5014610479578063e4902400146104a2578063ed00e653146104df578063fa0b5e551461050a578063fb5c6c621461053357610140565b806377552d8a1461031e57806395c5fed41461036557806397aff8c61461038e578063a0c1aeb9146103b7578063a591efde146103e2578063a87430ba1461040d57610140565b806357c90de51161010857806357c90de51461021d5780635b7e0ffa146102395780635d8a09e7146102645780636640e2ec146102a75780636f77926b146102b15780636f9fb98a146102f357610140565b8063021baa161461014557806319a50f4914610161578063204978451461018c5780634212a8ae146101b75780634389b9ea146101e0575b600080fd5b61015f600480360381019061015a91906126ec565b61055e565b005b34801561016d57600080fd5b5061017661085d565b6040516101839190612728565b60405180910390f35b34801561019857600080fd5b506101a1610863565b6040516101ae9190612728565b60405180910390f35b3480156101c357600080fd5b506101de60048036038101906101d991906126ec565b610906565b005b3480156101ec57600080fd5b5061020760048036038101906102029190612889565b610986565b604051610214919061295f565b60405180910390f35b6102376004803603810190610232919061297a565b610c04565b005b34801561024557600080fd5b5061024e6111ee565b60405161025b91906129fb565b60405180910390f35b34801561027057600080fd5b5061028b600480360381019061028691906126ec565b611286565b60405161029e9796959493929190612a9e565b60405180910390f35b6102af611527565b005b3480156102bd57600080fd5b506102d860048036038101906102d39190612b4e565b611529565b6040516102ea96959493929190612c39565b60405180910390f35b3480156102ff57600080fd5b50610308611923565b6040516103159190612728565b60405180910390f35b34801561032a57600080fd5b50610345600480360381019061034091906126ec565b61192b565b60405161035c9b9a99989796959493929190612cb6565b60405180910390f35b34801561037157600080fd5b5061038c60048036038101906103879190612d76565b611b77565b005b34801561039a57600080fd5b506103b560048036038101906103b09190612e1d565b611d78565b005b3480156103c357600080fd5b506103cc611f18565b6040516103d9919061295f565b60405180910390f35b3480156103ee57600080fd5b506103f7611f74565b6040516104049190612f1b565b60405180910390f35b34801561041957600080fd5b50610434600480360381019061042f9190612b4e565b612002565b604051610445959493929190612f3d565b60405180910390f35b34801561045a57600080fd5b506104636121d0565b6040516104709190612728565b60405180910390f35b34801561048557600080fd5b506104a0600480360381019061049b9190612e1d565b6121d6565b005b3480156104ae57600080fd5b506104c960048036038101906104c491906126ec565b61231e565b6040516104d691906129fb565b60405180910390f35b3480156104eb57600080fd5b506104f461235d565b604051610501919061295f565b60405180910390f35b34801561051657600080fd5b50610531600480360381019061052c9190612e1d565b6123c3565b005b34801561053f57600080fd5b506105486124c7565b6040516105559190612728565b60405180910390f35b80600115156003600083815260200190815260200160002060040160159054906101000a900460ff1615151461059357600080fd5b6003600260003373ffffffffffffffffffffffffffffffffffffffff1673ffffffffffffffffffffffffffffffffffffffff16815260200190815260200160002060010154146105e257600080fd5b3373ffffffffffffffffffffffffffffffffffffffff166003600084815260200190815260200160002060040160019054906101000a900473ffffffffffffffffffffffffffffffffffffffff1673ffffffffffffffffffffffffffffffffffffffff1614610686576040517f08c379a000000000000000000000000000000000000000000000000000000000815260040161067d90612ff1565b60405180910390fd5b600115156003600084815260200190815260200160002060040160009054906101000a900460ff161515146106f0576040517f08c379a00000000000000000000000000000000000000000000000000000000081526004016106e790613083565b60405180910390fd5b6001600360008481526020019081526020016000206005015414610749576040517f08c379a0000000000000000000000000000000000000000000000000000000008152600401610740906130ef565b60405180910390fd5b60006003600084815260200190815260200160002060040160006101000a81548160ff0219169083151502179055506003600083815260200190815260200160002060070160009054906101000a900473ffffffffffffffffffffffffffffffffffffffff166003600084815260200190815260200160002060040160016101000a81548173ffffffffffffffffffffffffffffffffffffffff021916908373ffffffffffffffffffffffffffffffffffffffff16021790555060006003600084815260200190815260200160002060070160006101000a81548173ffffffffffffffffffffffffffffffffffffffff021916908373ffffffffffffffffffffffffffffffffffffffff1602179055505050565b60055481565b6000600160009054906101000a900473ffffffffffffffffffffffffffffffffffffffff1673ffffffffffffffffffffffffffffffffffffffff166370a08231336040518263ffffffff1660e01b81526004016108c091906129fb565b602060405180830381865afa1580156108dd573d6000803e3d6000fd5b505050506040513d601f19601f820116820180604052508101906109019190613124565b905090565b60028060003373ffffffffffffffffffffffffffffffffffffffff1673ffffffffffffffffffffffffffffffffffffffff168152602001908152602001600020600101541461095457600080fd5b60016003600083815260200190815260200160002060040160156101000a81548160ff02191690831515021790555050565b600060016004546109979190613180565b6004819055506000806040518061016001604052808881526020018781526020018681526020018581526020016001151581526020013373ffffffffffffffffffffffffffffffffffffffff16815260200160001515815260200160018152602001600081526020018373ffffffffffffffffffffffffffffffffffffffff168152602001878152509050806003600060045481526020019081526020016000206000820151816000019080519060200190610a549291906125b2565b50602082015181600101556040820151816002019080519060200190610a7b9291906125b2565b506060820151816003019080519060200190610a989291906125b2565b5060808201518160040160006101000a81548160ff02191690831515021790555060a08201518160040160016101000a81548173ffffffffffffffffffffffffffffffffffffffff021916908373ffffffffffffffffffffffffffffffffffffffff16021790555060c08201518160040160156101000a81548160ff02191690831515021790555060e0820151816005015561010082015181600601556101208201518160070160006101000a81548173ffffffffffffffffffffffffffffffffffffffff021916908373ffffffffffffffffffffffffffffffffffffffff1602179055506101408201518160080155905050600260003373ffffffffffffffffffffffffffffffffffffffff1673ffffffffffffffffffffffffffffffffffffffff1681526020019081526020016000206005016004549080600181540180825580915050600190039060005260206000200160009091909190915055600192505050949350505050565b81600115156003600083815260200190815260200160002060040160159054906101000a900460ff16151514610c3957600080fd5b6003600260003373ffffffffffffffffffffffffffffffffffffffff1673ffffffffffffffffffffffffffffffffffffffff1681526020019081526020016000206001015414610c8857600080fd5b610c91826124d1565b6003600084815260200190815260200160002060080154821015610cea576040517f08c379a0000000000000000000000000000000000000000000000000000000008152600401610ce190613248565b60405180910390fd5b6003600084815260200190815260200160002060040160019054906101000a900473ffffffffffffffffffffffffffffffffffffffff1673ffffffffffffffffffffffffffffffffffffffff163373ffffffffffffffffffffffffffffffffffffffff1603610d8e576040517f08c379a0000000000000000000000000000000000000000000000000000000008152600401610d85906132da565b60405180910390fd5b600115156003600085815260200190815260200160002060040160009054906101000a900460ff16151514610df8576040517f08c379a0000000000000000000000000000000000000000000000000000000008152600401610def90613346565b60405180910390fd5b6001600360008581526020019081526020016000206005015414610e51576040517f08c379a0000000000000000000000000000000000000000000000000000000008152600401610e48906130ef565b60405180910390fd5b600073ffffffffffffffffffffffffffffffffffffffff166003600085815260200190815260200160002060070160009054906101000a900473ffffffffffffffffffffffffffffffffffffffff1673ffffffffffffffffffffffffffffffffffffffff1603610f3057816003600085815260200190815260200160002060080181905550336003600085815260200190815260200160002060070160006101000a81548173ffffffffffffffffffffffffffffffffffffffff021916908373ffffffffffffffffffffffffffffffffffffffff1602179055506111a9565b60006003600085815260200190815260200160002060070160009054906101000a900473ffffffffffffffffffffffffffffffffffffffff169050600060036000868152602001908152602001600020600801549050836003600087815260200190815260200160002060080181905550336003600087815260200190815260200160002060070160006101000a81548173ffffffffffffffffffffffffffffffffffffffff021916908373ffffffffffffffffffffffffffffffffffffffff160217905550600160009054906101000a900473ffffffffffffffffffffffffffffffffffffffff1673ffffffffffffffffffffffffffffffffffffffff1663095ea7b36003600088815260200190815260200160002060040160019054906101000a900473ffffffffffffffffffffffffffffffffffffffff16836040518363ffffffff1660e01b8152600401611089929190613366565b6020604051808303816000875af11580156110a8573d6000803e3d6000fd5b505050506040513d601f19601f820116820180604052508101906110cc91906133bb565b50600160009054906101000a900473ffffffffffffffffffffffffffffffffffffffff1673ffffffffffffffffffffffffffffffffffffffff166323b872dd6003600088815260200190815260200160002060040160019054906101000a900473ffffffffffffffffffffffffffffffffffffffff1684846040518463ffffffff1660e01b8152600401611162939291906133e8565b6020604051808303816000875af1158015611181573d6000803e3d6000fd5b505050506040513d601f19601f820116820180604052508101906111a591906133bb565b5050505b6111e96003600085815260200190815260200160002060040160019054906101000a900473ffffffffffffffffffffffffffffffffffffffff16836121d6565b505050565b6000600160009054906101000a900473ffffffffffffffffffffffffffffffffffffffff1673ffffffffffffffffffffffffffffffffffffffff16635b7e0ffa6040518163ffffffff1660e01b8152600401602060405180830381865afa15801561125d573d6000803e3d6000fd5b505050506040513d601f19601f820116820180604052508101906112819190613434565b905090565b60606000606080600080600060036000898152602001908152602001600020600001600360008a815260200190815260200160002060010154600360008b8152602001908152602001600020600201600360008c8152602001908152602001600020600301600360008d815260200190815260200160002060040160009054906101000a900460ff16600360008e815260200190815260200160002060040160019054906101000a900473ffffffffffffffffffffffffffffffffffffffff16600360008f815260200190815260200160002060040160159054906101000a900460ff1686805461137690613490565b80601f01602080910402602001604051908101604052809291908181526020018280546113a290613490565b80156113ef5780601f106113c4576101008083540402835291602001916113ef565b820191906000526020600020905b8154815290600101906020018083116113d257829003601f168201915b5050505050965084805461140290613490565b80601f016020809104026020016040519081016040528092919081815260200182805461142e90613490565b801561147b5780601f106114505761010080835404028352916020019161147b565b820191906000526020600020905b81548152906001019060200180831161145e57829003601f168201915b5050505050945083805461148e90613490565b80601f01602080910402602001604051908101604052809291908181526020018280546114ba90613490565b80156115075780601f106114dc57610100808354040283529160200191611507565b820191906000526020600020905b8154815290600101906020018083116114ea57829003601f168201915b505050505093509650965096509650965096509650919395979092949650565b565b60008060608060608060008054906101000a900473ffffffffffffffffffffffffffffffffffffffff1673ffffffffffffffffffffffffffffffffffffffff163373ffffffffffffffffffffffffffffffffffffffff161461158a57600080fd5b600260008873ffffffffffffffffffffffffffffffffffffffff1673ffffffffffffffffffffffffffffffffffffffff16815260200190815260200160002060000154600260008973ffffffffffffffffffffffffffffffffffffffff1673ffffffffffffffffffffffffffffffffffffffff16815260200190815260200160002060010154600260008a73ffffffffffffffffffffffffffffffffffffffff1673ffffffffffffffffffffffffffffffffffffffff168152602001908152602001600020600201600260008b73ffffffffffffffffffffffffffffffffffffffff1673ffffffffffffffffffffffffffffffffffffffff168152602001908152602001600020600301600260008c73ffffffffffffffffffffffffffffffffffffffff1673ffffffffffffffffffffffffffffffffffffffff168152602001908152602001600020600401600260008d73ffffffffffffffffffffffffffffffffffffffff1673ffffffffffffffffffffffffffffffffffffffff16815260200190815260200160002060050183805461172490613490565b80601f016020809104026020016040519081016040528092919081815260200182805461175090613490565b801561179d5780601f106117725761010080835404028352916020019161179d565b820191906000526020600020905b81548152906001019060200180831161178057829003601f168201915b505050505093508280546117b090613490565b80601f01602080910402602001604051908101604052809291908181526020018280546117dc90613490565b80156118295780601f106117fe57610100808354040283529160200191611829565b820191906000526020600020905b81548152906001019060200180831161180c57829003601f168201915b5050505050925081805461183c90613490565b80601f016020809104026020016040519081016040528092919081815260200182805461186890613490565b80156118b55780601f1061188a576101008083540402835291602001916118b5565b820191906000526020600020905b81548152906001019060200180831161189857829003601f168201915b505050505091508080548060200260200160405190810160405280929190818152602001828054801561190757602002820191906000526020600020905b8154815260200190600101908083116118f3575b5050505050905095509550955095509550955091939550919395565b600047905090565b600360205280600052604060002060009150905080600001805461194e90613490565b80601f016020809104026020016040519081016040528092919081815260200182805461197a90613490565b80156119c75780601f1061199c576101008083540402835291602001916119c7565b820191906000526020600020905b8154815290600101906020018083116119aa57829003601f168201915b5050505050908060010154908060020180546119e290613490565b80601f0160208091040260200160405190810160405280929190818152602001828054611a0e90613490565b8015611a5b5780601f10611a3057610100808354040283529160200191611a5b565b820191906000526020600020905b815481529060010190602001808311611a3e57829003601f168201915b505050505090806003018054611a7090613490565b80601f0160208091040260200160405190810160405280929190818152602001828054611a9c90613490565b8015611ae95780601f10611abe57610100808354040283529160200191611ae9565b820191906000526020600020905b815481529060010190602001808311611acc57829003601f168201915b5050505050908060040160009054906101000a900460ff16908060040160019054906101000a900473ffffffffffffffffffffffffffffffffffffffff16908060040160159054906101000a900460ff16908060050154908060060154908060070160009054906101000a900473ffffffffffffffffffffffffffffffffffffffff1690806008015490508b565b6001600554611b869190613180565b60058190555060006040518060c00160405280600554815260200160008152602001858152602001848152602001838152602001600067ffffffffffffffff811115611bd557611bd461275e565b5b604051908082528060200260200182016040528015611c035781602001602082028036833780820191505090505b50815250905080600260003373ffffffffffffffffffffffffffffffffffffffff1673ffffffffffffffffffffffffffffffffffffffff16815260200190815260200160002060008201518160000155602082015181600101556040820151816002019080519060200190611c799291906125b2565b506060820151816003019080519060200190611c969291906125b2565b506080820151816004019080519060200190611cb39291906125b2565b5060a0820151816005019080519060200190611cd0929190612638565b509050506006339080600181540180825580915050600190039060005260206000200160009091909190916101000a81548173ffffffffffffffffffffffffffffffffffffffff021916908373ffffffffffffffffffffffffffffffffffffffff1602179055507f6932ac5f42401e77c40344f612fa5558d62470f6a92606e938a4743c566e6ce833600554604051611d6a929190613366565b60405180910390a150505050565b60008054906101000a900473ffffffffffffffffffffffffffffffffffffffff1673ffffffffffffffffffffffffffffffffffffffff163373ffffffffffffffffffffffffffffffffffffffff1614611dd057600080fd5b600160009054906101000a900473ffffffffffffffffffffffffffffffffffffffff1673ffffffffffffffffffffffffffffffffffffffff1663095ea7b333836040518363ffffffff1660e01b8152600401611e2d929190613366565b6020604051808303816000875af1158015611e4c573d6000803e3d6000fd5b505050506040513d601f19601f82011682018060405250810190611e7091906133bb565b50600160009054906101000a900473ffffffffffffffffffffffffffffffffffffffff1673ffffffffffffffffffffffffffffffffffffffff166323b872dd3384846040518463ffffffff1660e01b8152600401611ed0939291906133e8565b6020604051808303816000875af1158015611eef573d6000803e3d6000fd5b505050506040513d601f19601f82011682018060405250810190611f1391906133bb565b505050565b600060028060003373ffffffffffffffffffffffffffffffffffffffff1673ffffffffffffffffffffffffffffffffffffffff1681526020019081526020016000206001015403611f6c5760019050611f71565b600090505b90565b60606006805480602002602001604051908101604052809291908181526020018280548015611ff857602002820191906000526020600020905b8160009054906101000a900473ffffffffffffffffffffffffffffffffffffffff1673ffffffffffffffffffffffffffffffffffffffff1681526020019060010190808311611fae575b5050505050905090565b600260205280600052604060002060009150905080600001549080600101549080600201805461203190613490565b80601f016020809104026020016040519081016040528092919081815260200182805461205d90613490565b80156120aa5780601f1061207f576101008083540402835291602001916120aa565b820191906000526020600020905b81548152906001019060200180831161208d57829003601f168201915b5050505050908060030180546120bf90613490565b80601f01602080910402602001604051908101604052809291908181526020018280546120eb90613490565b80156121385780601f1061210d57610100808354040283529160200191612138565b820191906000526020600020905b81548152906001019060200180831161211b57829003601f168201915b50505050509080600401805461214d90613490565b80601f016020809104026020016040519081016040528092919081815260200182805461217990613490565b80156121c65780601f1061219b576101008083540402835291602001916121c6565b820191906000526020600020905b8154815290600101906020018083116121a957829003601f168201915b5050505050905085565b60045481565b600160009054906101000a900473ffffffffffffffffffffffffffffffffffffffff1673ffffffffffffffffffffffffffffffffffffffff1663095ea7b333836040518363ffffffff1660e01b8152600401612233929190613366565b6020604051808303816000875af1158015612252573d6000803e3d6000fd5b505050506040513d601f19601f8201168201806040525081019061227691906133bb565b50600160009054906101000a900473ffffffffffffffffffffffffffffffffffffffff1673ffffffffffffffffffffffffffffffffffffffff166323b872dd3384846040518463ffffffff1660e01b81526004016122d6939291906133e8565b6020604051808303816000875af11580156122f5573d6000803e3d6000fd5b505050506040513d601f19601f8201168201806040525081019061231991906133bb565b505050565b6006818154811061232e57600080fd5b906000526020600020016000915054906101000a900473ffffffffffffffffffffffffffffffffffffffff1681565b60003373ffffffffffffffffffffffffffffffffffffffff1660008054906101000a900473ffffffffffffffffffffffffffffffffffffffff1673ffffffffffffffffffffffffffffffffffffffff16036123bb57600190506123c0565b600090505b90565b60008054906101000a900473ffffffffffffffffffffffffffffffffffffffff1673ffffffffffffffffffffffffffffffffffffffff163373ffffffffffffffffffffffffffffffffffffffff161461241b57600080fd5b600281148061242a5750600381145b612469576040517f08c379a000000000000000000000000000000000000000000000000000000000815260040161246090613533565b60405180910390fd5b80600260008473ffffffffffffffffffffffffffffffffffffffff1673ffffffffffffffffffffffffffffffffffffffff168152602001908152602001600020600101819055506124c38268056bc75e2d631000006121d6565b5050565b6000600454905090565b600160009054906101000a900473ffffffffffffffffffffffffffffffffffffffff1673ffffffffffffffffffffffffffffffffffffffff166370a08231336040518263ffffffff1660e01b815260040161252c91906129fb565b602060405180830381865afa158015612549573d6000803e3d6000fd5b505050506040513d601f19601f8201168201806040525081019061256d9190613124565b8111156125af576040517f08c379a00000000000000000000000000000000000000000000000000000000081526004016125a69061359f565b60405180910390fd5b50565b8280546125be90613490565b90600052602060002090601f0160209004810192826125e05760008555612627565b82601f106125f957805160ff1916838001178555612627565b82800160010185558215612627579182015b8281111561262657825182559160200191906001019061260b565b5b5090506126349190612685565b5090565b828054828255906000526020600020908101928215612674579160200282015b82811115612673578251825591602001919060010190612658565b5b5090506126819190612685565b5090565b5b8082111561269e576000816000905550600101612686565b5090565b6000604051905090565b600080fd5b600080fd5b6000819050919050565b6126c9816126b6565b81146126d457600080fd5b50565b6000813590506126e6816126c0565b92915050565b600060208284031215612702576127016126ac565b5b6000612710848285016126d7565b91505092915050565b612722816126b6565b82525050565b600060208201905061273d6000830184612719565b92915050565b600080fd5b600080fd5b6000601f19601f8301169050919050565b7f4e487b7100000000000000000000000000000000000000000000000000000000600052604160045260246000fd5b6127968261274d565b810181811067ffffffffffffffff821117156127b5576127b461275e565b5b80604052505050565b60006127c86126a2565b90506127d4828261278d565b919050565b600067ffffffffffffffff8211156127f4576127f361275e565b5b6127fd8261274d565b9050602081019050919050565b82818337600083830152505050565b600061282c612827846127d9565b6127be565b90508281526020810184848401111561284857612847612748565b5b61285384828561280a565b509392505050565b600082601f8301126128705761286f612743565b5b8135612880848260208601612819565b91505092915050565b600080600080608085870312156128a3576128a26126ac565b5b600085013567ffffffffffffffff8111156128c1576128c06126b1565b5b6128cd8782880161285b565b94505060206128de878288016126d7565b935050604085013567ffffffffffffffff8111156128ff576128fe6126b1565b5b61290b8782880161285b565b925050606085013567ffffffffffffffff81111561292c5761292b6126b1565b5b6129388782880161285b565b91505092959194509250565b60008115159050919050565b61295981612944565b82525050565b60006020820190506129746000830184612950565b92915050565b60008060408385031215612991576129906126ac565b5b600061299f858286016126d7565b92505060206129b0858286016126d7565b9150509250929050565b600073ffffffffffffffffffffffffffffffffffffffff82169050919050565b60006129e5826129ba565b9050919050565b6129f5816129da565b82525050565b6000602082019050612a1060008301846129ec565b92915050565b600081519050919050565b600082825260208201905092915050565b60005b83811015612a50578082015181840152602081019050612a35565b83811115612a5f576000848401525b50505050565b6000612a7082612a16565b612a7a8185612a21565b9350612a8a818560208601612a32565b612a938161274d565b840191505092915050565b600060e0820190508181036000830152612ab8818a612a65565b9050612ac76020830189612719565b8181036040830152612ad98188612a65565b90508181036060830152612aed8187612a65565b9050612afc6080830186612950565b612b0960a08301856129ec565b612b1660c0830184612950565b98975050505050505050565b612b2b816129da565b8114612b3657600080fd5b50565b600081359050612b4881612b22565b92915050565b600060208284031215612b6457612b636126ac565b5b6000612b7284828501612b39565b91505092915050565b600081519050919050565b600082825260208201905092915050565b6000819050602082019050919050565b612bb0816126b6565b82525050565b6000612bc28383612ba7565b60208301905092915050565b6000602082019050919050565b6000612be682612b7b565b612bf08185612b86565b9350612bfb83612b97565b8060005b83811015612c2c578151612c138882612bb6565b9750612c1e83612bce565b925050600181019050612bff565b5085935050505092915050565b600060c082019050612c4e6000830189612719565b612c5b6020830188612719565b8181036040830152612c6d8187612a65565b90508181036060830152612c818186612a65565b90508181036080830152612c958185612a65565b905081810360a0830152612ca98184612bdb565b9050979650505050505050565b6000610160820190508181036000830152612cd1818e612a65565b9050612ce0602083018d612719565b8181036040830152612cf2818c612a65565b90508181036060830152612d06818b612a65565b9050612d15608083018a612950565b612d2260a08301896129ec565b612d2f60c0830188612950565b612d3c60e0830187612719565b612d4a610100830186612719565b612d586101208301856129ec565b612d66610140830184612719565b9c9b505050505050505050505050565b600080600060608486031215612d8f57612d8e6126ac565b5b600084013567ffffffffffffffff811115612dad57612dac6126b1565b5b612db98682870161285b565b935050602084013567ffffffffffffffff811115612dda57612dd96126b1565b5b612de68682870161285b565b925050604084013567ffffffffffffffff811115612e0757612e066126b1565b5b612e138682870161285b565b9150509250925092565b60008060408385031215612e3457612e336126ac565b5b6000612e4285828601612b39565b9250506020612e53858286016126d7565b9150509250929050565b600081519050919050565b600082825260208201905092915050565b6000819050602082019050919050565b612e92816129da565b82525050565b6000612ea48383612e89565b60208301905092915050565b6000602082019050919050565b6000612ec882612e5d565b612ed28185612e68565b9350612edd83612e79565b8060005b83811015612f0e578151612ef58882612e98565b9750612f0083612eb0565b925050600181019050612ee1565b5085935050505092915050565b60006020820190508181036000830152612f358184612ebd565b905092915050565b600060a082019050612f526000830188612719565b612f5f6020830187612719565b8181036040830152612f718186612a65565b90508181036060830152612f858185612a65565b90508181036080830152612f998184612a65565b90509695505050505050565b7f4f6e6c79206f776e65722063616e2073746f702061206269642e000000000000600082015250565b6000612fdb601a83612a21565b9150612fe682612fa5565b602082019050919050565b6000602082019050818103600083015261300a81612fce565b9050919050565b7f43616e6e6f742073746f7020612062696420696620657374617465206973206e60008201527f6f7420746f20626520736f6c642e000000000000000000000000000000000000602082015250565b600061306d602e83612a21565b915061307882613011565b604082019050919050565b6000602082019050818103600083015261309c81613060565b9050919050565b7f4573746174652074797065206973206e6f742073656c6c61626c650000000000600082015250565b60006130d9601b83612a21565b91506130e4826130a3565b602082019050919050565b60006020820190508181036000830152613108816130cc565b9050919050565b60008151905061311e816126c0565b92915050565b60006020828403121561313a576131396126ac565b5b60006131488482850161310f565b91505092915050565b7f4e487b7100000000000000000000000000000000000000000000000000000000600052601160045260246000fd5b600061318b826126b6565b9150613196836126b6565b9250827fffffffffffffffffffffffffffffffffffffffffffffffffffffffffffffffff038211156131cb576131ca613151565b5b828201905092915050565b7f55736572277320626964206973206c6f776572207468616e207468652068696760008201527f68657374206269642e0000000000000000000000000000000000000000000000602082015250565b6000613232602983612a21565b915061323d826131d6565b604082019050919050565b6000602082019050818103600083015261326181613225565b9050919050565b7f53656c6c657220697473656c662063616e6e6f7420626520746865206275796560008201527f7200000000000000000000000000000000000000000000000000000000000000602082015250565b60006132c4602183612a21565b91506132cf82613268565b604082019050919050565b600060208201905081810360008301526132f3816132b7565b9050919050565b7f4e6f7420666f722073616c650000000000000000000000000000000000000000600082015250565b6000613330600c83612a21565b915061333b826132fa565b602082019050919050565b6000602082019050818103600083015261335f81613323565b9050919050565b600060408201905061337b60008301856129ec565b6133886020830184612719565b9392505050565b61339881612944565b81146133a357600080fd5b50565b6000815190506133b58161338f565b92915050565b6000602082840312156133d1576133d06126ac565b5b60006133df848285016133a6565b91505092915050565b60006060820190506133fd60008301866129ec565b61340a60208301856129ec565b6134176040830184612719565b949350505050565b60008151905061342e81612b22565b92915050565b60006020828403121561344a576134496126ac565b5b60006134588482850161341f565b91505092915050565b7f4e487b7100000000000000000000000000000000000000000000000000000000600052602260045260246000fd5b600060028204905060018216806134a857607f821691505b6020821081036134bb576134ba613461565b5b50919050565b7f557365722074797065206d757374206265206569746865722061756469746f7260008201527f206f72206275796572206f722073656c6c657200000000000000000000000000602082015250565b600061351d603383612a21565b9150613528826134c1565b604082019050919050565b6000602082019050818103600083015261354c81613510565b9050919050565b7f4e6f7420456e6f756768205265616c5420546f6b656e73000000000000000000600082015250565b6000613589601783612a21565b915061359482613553565b602082019050919050565b600060208201905081810360008301526135b88161357c565b905091905056fea2646970667358221220bc624b82f9e1575dd57ad6fc79fa72013156deec8276cf76f1f9f43be5cfa3ea64736f6c634300080d0033",
  "immutableReferences": {},
  "source": "//SPDX-License-Identifier: UNLICENSED\r\npragma solidity ^0.8.0;\r\nimport \"./RealT.sol\";\r\ncontract CryptoAbode{\r\n    address _admin;\r\n    RealT realT;\r\n    \r\n    struct UserDetails {  \r\n        uint id;\r\n        uint user_type; // 1: Admin, 2: Auditor, 3: Buyer / Seller\r\n        string name;\r\n        string contact;\r\n        string location;\r\n        uint[] estates;\r\n    }\r\n    struct EstateListing {   \r\n        string estateAddress;\r\n        uint requiredPrice;\r\n        string imgUrl;\r\n        string features;\r\n        bool toBeSold;\r\n\t\taddress owner;\r\n        bool isVerified;\r\n        uint estateType; // 1:Buy/sell, 2:Rent\r\n        uint months;\r\n        //address payable highestBidder;\r\n        address highestBidder;\r\n        uint highestBid;\r\n    }\r\n\r\n    mapping(address => UserDetails) public users;\r\n    mapping (uint => EstateListing) public listedEstates;\r\n    uint public numEstates=0; //total no of estates via this contract at any time\r\n    uint public numUsers=0; //total no of users via this contract at any time\r\n    address[] public userAddrs;\r\n\r\n    event InitUser(address _user,RealT realT); //constructor event\r\n\r\n    constructor(address tokenAddress) payable public{\r\n        realT = RealT(tokenAddress); \r\n        _admin = msg.sender;\r\n        users[msg.sender].user_type = 1;\r\n        emit InitUser(msg.sender,realT);\r\n    }\r\n\r\n    event AddUser(address _user, uint _userId); //user addition event\r\n    event AddEstate(address _owner, uint _estateID); //estate addition event\r\n    event TransferEstate(address indexed _seller, address indexed _buyer, uint _estateID); //estate transfer event\r\n    \r\n\r\n    \r\n    //modifiers\r\n    modifier onlyAdmin {\r\n        require(msg.sender == _admin);\r\n        _;\r\n    }\r\n\r\n    modifier onlyAuditor {\r\n        require(users[msg.sender].user_type == 2);\r\n        _;\r\n    }\r\n \r\n    modifier onlyBuyerOrSeller{ \r\n        require(users[msg.sender].user_type == 3);\r\n        _;\r\n    }\r\n\r\n    modifier onlyVerifiedProperty (uint estateIndex){ \r\n        require(listedEstates[estateIndex].isVerified == true);\r\n        _;\r\n    }\r\n\r\n    function fetchApprovedMarket() public view returns(address){\r\n        return realT.fetchApprovedMarket();\r\n    }\r\n\r\n    function addContractBalance() public payable{}\r\n\r\n    function addUser (string memory name, string memory contact, string memory location) public {\r\n        numUsers = numUsers + 1;\r\n        UserDetails memory user = UserDetails(\r\n            {\r\n                id: numUsers,\r\n                name: name,\r\n                contact: contact,\r\n                location: location,\r\n                user_type: 0,\r\n                estates: new uint[](0)\r\n            });\r\n        users[msg.sender] = user;\r\n        userAddrs.push(msg.sender);\r\n        \r\n        emit AddUser(msg.sender, numUsers);\r\n\r\n    }\r\n\t \r\n\tfunction registerUser (address userAddr, uint user_type) public onlyAdmin{ \r\n        require((user_type == 2 || user_type == 3), \"User type must be either auditor or buyer or seller\");\r\n        users[userAddr].user_type = user_type;\r\n        // realT.transferFrom(_admin, msg.sender, 100*10**18) ;   \r\n        transferRealTToken(userAddr, 100*10**18);      \r\n    }\r\n\r\n    function verifyProperty(uint estateIndex) public onlyAuditor{ \r\n        listedEstates[estateIndex].isVerified = true;        \r\n    }\r\n\r\n    function getContractBalance() public view returns(uint){ \r\n        return address(this).balance; \r\n    }\r\n\r\n    function addEstate(string memory _location, uint _cost,string memory imageURL, string memory feat) public returns(bool)\r\n    {\r\n        numEstates = numEstates + 1;\r\n        //address payable highBidder = address(0);\r\n        address highBidder = address(0);\r\n        EstateListing memory myEstate = EstateListing(\r\n            {\r\n                owner: msg.sender,\r\n                estateAddress: _location,\r\n                requiredPrice: _cost,\r\n                imgUrl: imageURL,\r\n                features: feat,\r\n                toBeSold: true,\r\n                isVerified: false,\r\n                months: 0,\r\n                estateType: 1,\r\n                highestBid: _cost,\r\n                highestBidder: highBidder\r\n            });\r\n        listedEstates[numEstates] = myEstate;\r\n        users[msg.sender].estates.push(numEstates);\r\n        \r\n        return true;\r\n    }\r\n\r\n    function getEstateDetails(uint _index) public view returns (string memory, uint,string memory,string memory, bool, address, bool) {\r\n        return ( \r\n            listedEstates[_index].estateAddress,\r\n            listedEstates[_index].requiredPrice,\r\n            listedEstates[_index].imgUrl,\r\n            listedEstates[_index].features,\r\n            listedEstates[_index].toBeSold,\r\n            listedEstates[_index].owner,\r\n            listedEstates[_index].isVerified\r\n        );         \r\n    }\r\n    function getEstateCount() public view returns (uint){\r\n        return numEstates;\r\n    }\r\n\r\n    function getUserAddresses() public view returns (address[] memory){\r\n        return userAddrs;\r\n    }\r\n\r\n    function checkIfAdmin() external view returns(bool){\r\n        if(_admin == msg.sender){\r\n            return true;\r\n        }\r\n        return false;\r\n    }\r\n\r\n    function checkIfAuditor() external view returns(bool){\r\n        if(users[msg.sender].user_type == 2){\r\n            return true;\r\n        }\r\n        return false;\r\n    }\r\n\r\n    function getUser (address userAddr) onlyAdmin public view returns (uint, uint,string memory,string memory, string memory, uint[] memory ) {\r\n        return (\r\n        users[userAddr].id,\r\n        users[userAddr].user_type,\r\n        users[userAddr].name,\r\n        users[userAddr].contact,\r\n        users[userAddr].location,\r\n        users[userAddr].estates\r\n        );         \r\n    }\r\n\r\n    function placeBid (uint estateIndex,uint bidValue) onlyVerifiedProperty(estateIndex) onlyBuyerOrSeller public payable{\r\n        //require(bidValue >= listedEstates[estateIndex].requiredPrice,\"User does not have enough balance to buy this estate\");\r\n        checkRealTAndBid(bidValue); \r\n        require(bidValue >= listedEstates[estateIndex].highestBid,\"User's bid is lower than the highest bid.\");\r\n        require(msg.sender != listedEstates[estateIndex].owner ,\"Seller itself cannot be the buyer\");\r\n        require(listedEstates[estateIndex].toBeSold == true, \"Not for sale\");\r\n        require(listedEstates[estateIndex].estateType == 1, \"Estate type is not sellable\");\r\n        \r\n        if(listedEstates[estateIndex].highestBidder == address(0)){\r\n            // HighestBidder is the firstBidder;\r\n            listedEstates[estateIndex].highestBid = bidValue;\r\n            listedEstates[estateIndex].highestBidder = msg.sender;\r\n        }else{ \r\n            // Revert amount to previous bidder logic.\r\n            address _previousHighestBidder = listedEstates[estateIndex].highestBidder;\r\n            uint _previousHighestBid = listedEstates[estateIndex].highestBid;\r\n\r\n            listedEstates[estateIndex].highestBid = bidValue;\r\n            listedEstates[estateIndex].highestBidder = msg.sender;\r\n            //(_previousHighestBidder).transfer(_previousHighestBid);\r\n            //payable(_previousHighestBidder).transfer(_previousHighestBid);\r\n            // transferRealTToken(_previousHighestBidder, _previousHighestBid);\r\n            realT.approve(listedEstates[estateIndex].owner,_previousHighestBid);\r\n            realT.transferFrom(listedEstates[estateIndex].owner, _previousHighestBidder, _previousHighestBid);\r\n\r\n        }\r\n        transferRealTToken(listedEstates[estateIndex].owner, bidValue);\r\n        \r\n        // emit Transfer(seller,msg.sender, estateIndex);\r\n    }\r\n\r\n    function stopBidding (uint estateIndex) onlyVerifiedProperty(estateIndex) onlyBuyerOrSeller payable public {\r\n        require(listedEstates[estateIndex].owner == msg.sender, \"Only owner can stop a bid.\");\r\n        require(listedEstates[estateIndex].toBeSold == true, \"Cannot stop a bid if estate is not to be sold.\");\r\n        require(listedEstates[estateIndex].estateType == 1, \"Estate type is not sellable\");\r\n\r\n        listedEstates[estateIndex].toBeSold = false;\r\n        listedEstates[estateIndex].owner = listedEstates[estateIndex].highestBidder;\r\n        listedEstates[estateIndex].highestBidder = address(0);\r\n\r\n        // emit Transfer(seller,msg.sender, estateIndex);\r\n    }\r\n\r\n    function getRealTBalance() public view returns(uint){\r\n        return realT.balanceOf(msg.sender);\r\n    }\r\n\r\n    function checkRealTAndBid(uint bid) internal view{\r\n        if(bid > realT.balanceOf(msg.sender)){\r\n            revert(\"Not Enough RealT Tokens\");\r\n        }\r\n    }\r\n\r\n    function transferRealTToken(address to, uint amount) public{\r\n        realT.approve(msg.sender,amount);\r\n        realT.transferFrom(msg.sender, to, amount);\r\n    }\r\n    \r\n    function transferRealTTokenAirDrop(address to, uint amount) onlyAdmin public{\r\n        realT.approve(msg.sender,amount);\r\n        realT.transferFrom(msg.sender, to, amount);\r\n    }\r\n\r\n\r\n\r\n   \r\n}",
  "sourcePath": "C:\\Users\\Dell\\Documents\\sem-2\\blockchain\\phase3\\CryptoAbodeMarketPlace-onlyAdminAirdrop\\CryptoAbodeMarketPlace\\cryptoabode-contract\\contracts\\CryptoAbode.sol",
  "compiler": {
    "name": "solc",
    "version": "0.8.13+commit.abaa5c0e.Emscripten.clang"
  },
  "schemaVersion": "3.4.7",
  "updatedAt": "2022-05-09T02:02:32.948Z",
  "networkType": "ethereum",
  "devdoc": {
    "kind": "dev",
    "methods": {},
    "version": 1
  },
  "userdoc": {
    "kind": "user",
    "methods": {},
    "version": 1
  }
}